{
  "contractName": "TodoList",
  "abi": [
    {
      "inputs": [],
      "stateMutability": "nonpayable",
      "type": "constructor"
    },
    {
      "anonymous": false,
      "inputs": [
        {
          "indexed": false,
          "internalType": "uint256",
          "name": "id",
          "type": "uint256"
        },
        {
          "indexed": false,
          "internalType": "bool",
          "name": "completed",
          "type": "bool"
        }
      ],
      "name": "TaskCompleted",
      "type": "event"
    },
    {
      "anonymous": false,
      "inputs": [
        {
          "indexed": false,
          "internalType": "uint256",
          "name": "id",
          "type": "uint256"
        },
        {
          "indexed": false,
          "internalType": "string",
          "name": "content",
          "type": "string"
        },
        {
          "indexed": false,
          "internalType": "bool",
          "name": "completed",
          "type": "bool"
        }
      ],
      "name": "TaskCreated",
      "type": "event"
    },
    {
      "anonymous": false,
      "inputs": [
        {
          "indexed": false,
          "internalType": "uint256",
          "name": "id",
          "type": "uint256"
        }
      ],
      "name": "TaskDeleted",
      "type": "event"
    },
    {
      "inputs": [],
      "name": "taskCount",
      "outputs": [
        {
          "internalType": "uint256",
          "name": "",
          "type": "uint256"
        }
      ],
      "stateMutability": "view",
      "type": "function",
      "constant": true
    },
    {
      "inputs": [
        {
          "internalType": "uint256",
          "name": "",
          "type": "uint256"
        }
      ],
      "name": "tasks",
      "outputs": [
        {
          "internalType": "uint256",
          "name": "id",
          "type": "uint256"
        },
        {
          "internalType": "string",
          "name": "content",
          "type": "string"
        },
        {
          "internalType": "bool",
          "name": "completed",
          "type": "bool"
        }
      ],
      "stateMutability": "view",
      "type": "function",
      "constant": true
    },
    {
      "inputs": [
        {
          "internalType": "string",
          "name": "_content",
          "type": "string"
        }
      ],
      "name": "createTask",
      "outputs": [],
      "stateMutability": "nonpayable",
      "type": "function"
    },
    {
      "inputs": [
        {
          "internalType": "uint256",
          "name": "_id",
          "type": "uint256"
        }
      ],
      "name": "toggleCompleted",
      "outputs": [],
      "stateMutability": "nonpayable",
      "type": "function"
    },
    {
      "inputs": [
        {
          "internalType": "uint256",
          "name": "_id",
          "type": "uint256"
        }
      ],
      "name": "deleteTask",
      "outputs": [],
      "stateMutability": "nonpayable",
      "type": "function"
    }
  ],
  "bytecode": "0x608060405234801561001057600080fd5b5060408051808201909152600c81526b44656661756c74205461736b60a01b602082015261003d90610042565b61025b565b60008054908061005183610195565b90915550506040805160608101825260008054808352602080840186815284860184905291835260018082529490922083518155905180519394919361009f939285019291909101906100fc565b50604091820151600291909101805460ff19169115159190911790556000805491517f05d0fb833127fc08168556d0e7ca9554fc3f6bc843b3b7d2bf1c35aea6bab660926100f19290918591906101bc565b60405180910390a150565b82805461010890610221565b90600052602060002090601f01602090048101928261012a5760008555610170565b82601f1061014357805160ff1916838001178555610170565b82800160010185558215610170579182015b82811115610170578251825591602001919060010190610155565b5061017c929150610180565b5090565b5b8082111561017c5760008155600101610181565b6000600182016101b557634e487b7160e01b600052601160045260246000fd5b5060010190565b83815260006020606081840152845180606085015260005b818110156101f0578681018301518582016080015282016101d4565b81811115610202576000608083870101525b5093151560408401525050601f91909101601f19160160800192915050565b600181811c9082168061023557607f821691505b60208210810361025557634e487b7160e01b600052602260045260246000fd5b50919050565b6106a78061026a6000396000f3fe608060405234801561001057600080fd5b50600436106100575760003560e01c8063111002aa1461005c578063455f502414610071578063560f3192146100845780638d97767214610097578063b6cb58a5146100c2575b600080fd5b61006f61006a3660046104e1565b6100d9565b005b61006f61007f366004610592565b610193565b61006f610092366004610592565b6102eb565b6100aa6100a5366004610592565b610348565b6040516100b9939291906105ab565b60405180910390f35b6100cb60005481565b6040519081526020016100b9565b6000805490806100e883610610565b909155505060408051606081018252600080548083526020808401868152848601849052918352600180825294909220835181559051805193949193610136939285019291909101906103f5565b50604091820151600291909101805460ff19169115159190911790556000805491517f05d0fb833127fc08168556d0e7ca9554fc3f6bc843b3b7d2bf1c35aea6bab660926101889290918591906105ab565b60405180910390a150565b60008181526001602081815260408084208151606081019092528054825292830180549193928401916101c590610637565b80601f01602080910402602001604051908101604052809291908181526020018280546101f190610637565b801561023e5780601f106102135761010080835404028352916020019161023e565b820191906000526020600020905b81548152906001019060200180831161022157829003601f168201915b50505091835250506002919091015460ff1615156020918201526040808301805115905260008581526001808452919020835181558383015180519495508594919361028f938501929101906103f5565b50604091820151600291909101805460ff191691151591909117905581810151815184815290151560208201527fe21fa966ca5cd02748c0752352d18c48165e61cb55b4c29cccf924b5a95fcff1910160405180910390a15050565b60008181526001602081905260408220828155919061030c90830182610479565b50600201805460ff191690556040518181527fd078b251d950cc55c44340be1db732337ef4939a76e1367ee271ad2cb19c46af90602001610188565b60016020819052600091825260409091208054918101805461036990610637565b80601f016020809104026020016040519081016040528092919081815260200182805461039590610637565b80156103e25780601f106103b7576101008083540402835291602001916103e2565b820191906000526020600020905b8154815290600101906020018083116103c557829003601f168201915b5050506002909301549192505060ff1683565b82805461040190610637565b90600052602060002090601f0160209004810192826104235760008555610469565b82601f1061043c57805160ff1916838001178555610469565b82800160010185558215610469579182015b8281111561046957825182559160200191906001019061044e565b506104759291506104b6565b5090565b50805461048590610637565b6000825580601f10610495575050565b601f0160209004906000526020600020908101906104b391906104b6565b50565b5b8082111561047557600081556001016104b7565b634e487b7160e01b600052604160045260246000fd5b6000602082840312156104f357600080fd5b813567ffffffffffffffff8082111561050b57600080fd5b818401915084601f83011261051f57600080fd5b813581811115610531576105316104cb565b604051601f8201601f19908116603f01168101908382118183101715610559576105596104cb565b8160405282815287602084870101111561057257600080fd5b826020860160208301376000928101602001929092525095945050505050565b6000602082840312156105a457600080fd5b5035919050565b83815260006020606081840152845180606085015260005b818110156105df578681018301518582016080015282016105c3565b818111156105f1576000608083870101525b5093151560408401525050601f91909101601f19160160800192915050565b60006001820161063057634e487b7160e01b600052601160045260246000fd5b5060010190565b600181811c9082168061064b57607f821691505b60208210810361066b57634e487b7160e01b600052602260045260246000fd5b5091905056fea2646970667358221220d42735a658202cfaa8f4ea482104a8608e8bd21c3a6e2b9307833c3226d283a464736f6c634300080e0033",
  "immutableReferences": {},
  "source": "// SPDX-License-Identifier: MIT\r\npragma solidity 0.8.14;\r\n\r\ncontract TodoList {\r\n    uint public taskCount;\r\n    mapping(uint => Task) public tasks;\r\n    event TaskCreated(uint id, string content, bool completed);\r\n    event TaskCompleted(uint id, bool completed);\r\n    event TaskDeleted(uint id);\r\n\r\n    struct Task {\r\n        uint id;\r\n        string content;\r\n        bool completed;\r\n    }\r\n\r\n    constructor() {\r\n        createTask(\"Default Task\");\r\n    }\r\n\r\n    function createTask(string memory _content) public {\r\n        taskCount++;\r\n        tasks[taskCount] = Task(taskCount, _content, false);\r\n\r\n        emit TaskCreated(taskCount, _content, false);\r\n    }\r\n\r\n    function toggleCompleted(uint _id) public {\r\n        Task memory _task = tasks[_id];\r\n        _task.completed = !_task.completed;\r\n        tasks[_id] = _task;\r\n        emit TaskCompleted(_id, _task.completed);\r\n    }\r\n\r\n    function deleteTask(uint _id) public {\r\n        delete tasks[_id];\r\n        emit TaskDeleted(_id);\r\n    }\r\n}\r\n",
  "sourcePath": "D:\\eth-todo-list\\contracts\\TodoList.sol",
  "compiler": {
    "name": "solc",
    "version": "0.8.14+commit.80d49f37.Emscripten.clang"
  },
  "schemaVersion": "3.4.16",
  "updatedAt": "2023-10-27T17:14:26.827Z",
  "networkType": "ethereum",
  "devdoc": {
    "kind": "dev",
    "methods": {},
    "version": 1
  },
  "userdoc": {
    "kind": "user",
    "methods": {},
    "version": 1
  }
}