{
  "contractName": "TodoList",
  "abi": [
    {
      "inputs": [],
      "stateMutability": "nonpayable",
      "type": "constructor"
    },
    {
      "anonymous": false,
      "inputs": [
        {
          "indexed": false,
          "internalType": "uint256",
          "name": "id",
          "type": "uint256"
        },
        {
          "indexed": false,
          "internalType": "string",
          "name": "content",
          "type": "string"
        },
        {
          "indexed": false,
          "internalType": "bool",
          "name": "completed",
          "type": "bool"
        }
      ],
      "name": "TaskCreated",
      "type": "event"
    },
    {
      "inputs": [],
      "name": "taskCount",
      "outputs": [
        {
          "internalType": "uint256",
          "name": "",
          "type": "uint256"
        }
      ],
      "stateMutability": "view",
      "type": "function",
      "constant": true
    },
    {
      "inputs": [
        {
          "internalType": "uint256",
          "name": "",
          "type": "uint256"
        }
      ],
      "name": "tasks",
      "outputs": [
        {
          "internalType": "uint256",
          "name": "id",
          "type": "uint256"
        },
        {
          "internalType": "string",
          "name": "content",
          "type": "string"
        },
        {
          "internalType": "bool",
          "name": "completed",
          "type": "bool"
        }
      ],
      "stateMutability": "view",
      "type": "function",
      "constant": true
    },
    {
      "inputs": [
        {
          "internalType": "string",
          "name": "_content",
          "type": "string"
        }
      ],
      "name": "createTask",
      "outputs": [],
      "stateMutability": "nonpayable",
      "type": "function"
    }
  ],
  "bytecode": "0x608060405234801561000f575f80fd5b5060408051808201909152600c81526b44656661756c74205461736b60a01b602082015261003c90610041565b6102c8565b5f8054908061004f836100f3565b9091555050604080516060810182525f8054808352602080840186815284860184905291835260019081905293909120825181559051919290919082019061009790826101b1565b50604091820151600291909101805460ff19169115159190911790555f805491517f05d0fb833127fc08168556d0e7ca9554fc3f6bc843b3b7d2bf1c35aea6bab660926100e892909185919061026c565b60405180910390a150565b5f6001820161011057634e487b7160e01b5f52601160045260245ffd5b5060010190565b634e487b7160e01b5f52604160045260245ffd5b600181811c9082168061013f57607f821691505b60208210810361015d57634e487b7160e01b5f52602260045260245ffd5b50919050565b601f8211156101ac575f81815260208120601f850160051c810160208610156101895750805b601f850160051c820191505b818110156101a857828155600101610195565b5050505b505050565b81516001600160401b038111156101ca576101ca610117565b6101de816101d8845461012b565b84610163565b602080601f831160018114610211575f84156101fa5750858301515b5f19600386901b1c1916600185901b1785556101a8565b5f85815260208120601f198616915b8281101561023f57888601518255948401946001909101908401610220565b508582101561025c57878501515f19600388901b60f8161c191681555b5050505050600190811b01905550565b8381525f602060608184015284518060608501525f5b8181101561029e57868101830151858201608001528201610282565b505f608082860101526080601f19601f830116850101925050508215156040830152949350505050565b6104c3806102d55f395ff3fe608060405234801561000f575f80fd5b506004361061003f575f3560e01c8063111002aa146100435780638d97767214610058578063b6cb58a514610083575b5f80fd5b610056610051366004610209565b610099565b005b61006b6100663660046102b4565b61014b565b60405161007a939291906102cb565b60405180910390f35b61008b5f5481565b60405190815260200161007a565b5f805490806100a783610327565b9091555050604080516060810182525f805480835260208084018681528486018490529183526001908190529390912082518155905191929091908201906100ef90826103d1565b50604091820151600291909101805460ff19169115159190911790555f805491517f05d0fb833127fc08168556d0e7ca9554fc3f6bc843b3b7d2bf1c35aea6bab660926101409290918591906102cb565b60405180910390a150565b600160208190525f91825260409091208054918101805461016b9061034b565b80601f01602080910402602001604051908101604052809291908181526020018280546101979061034b565b80156101e25780601f106101b9576101008083540402835291602001916101e2565b820191905f5260205f20905b8154815290600101906020018083116101c557829003601f168201915b5050506002909301549192505060ff1683565b634e487b7160e01b5f52604160045260245ffd5b5f60208284031215610219575f80fd5b813567ffffffffffffffff80821115610230575f80fd5b818401915084601f830112610243575f80fd5b813581811115610255576102556101f5565b604051601f8201601f19908116603f0116810190838211818310171561027d5761027d6101f5565b81604052828152876020848701011115610295575f80fd5b826020860160208301375f928101602001929092525095945050505050565b5f602082840312156102c4575f80fd5b5035919050565b8381525f602060608184015284518060608501525f5b818110156102fd578681018301518582016080015282016102e1565b505f608082860101526080601f19601f830116850101925050508215156040830152949350505050565b5f6001820161034457634e487b7160e01b5f52601160045260245ffd5b5060010190565b600181811c9082168061035f57607f821691505b60208210810361037d57634e487b7160e01b5f52602260045260245ffd5b50919050565b601f8211156103cc575f81815260208120601f850160051c810160208610156103a95750805b601f850160051c820191505b818110156103c8578281556001016103b5565b5050505b505050565b815167ffffffffffffffff8111156103eb576103eb6101f5565b6103ff816103f9845461034b565b84610383565b602080601f831160018114610432575f841561041b5750858301515b5f19600386901b1c1916600185901b1785556103c8565b5f85815260208120601f198616915b8281101561046057888601518255948401946001909101908401610441565b508582101561047d57878501515f19600388901b60f8161c191681555b5050505050600190811b0190555056fea264697066735822122090ca82bd44319c01eee287f9d73c431806d2d46bd25a4f9c4f0eb06a4999cd4d64736f6c63430008150033",
  "immutableReferences": {},
  "source": "// SPDX-License-Identifier: MIT\r\npragma solidity ^0.8.14;\r\n\r\ncontract TodoList {\r\n    uint public taskCount;\r\n    mapping(uint => Task) public tasks;\r\n    event TaskCreated(uint id, string content, bool completed);\r\n\r\n    struct Task {\r\n        uint id;\r\n        string content;\r\n        bool completed;\r\n    }\r\n\r\n    constructor() {\r\n        createTask(\"Default Task\");\r\n    }\r\n\r\n    function createTask(string memory _content) public {\r\n        taskCount++;\r\n        tasks[taskCount] = Task(taskCount, _content, false);\r\n\r\n        emit TaskCreated(taskCount, _content, false);\r\n    }\r\n}\r\n",
  "sourcePath": "D:\\eth-todo-list\\contracts\\TodoList.sol",
  "compiler": {
    "name": "solc",
    "version": "0.8.21+commit.d9974bed.Emscripten.clang"
  },
  "schemaVersion": "3.4.16",
  "updatedAt": "2023-10-17T13:50:55.540Z",
  "networkType": "ethereum",
  "devdoc": {
    "kind": "dev",
    "methods": {},
    "version": 1
  },
  "userdoc": {
    "kind": "user",
    "methods": {},
    "version": 1
  }
}